:020000040800F2
:1000000000500020DD0A0008990600089F0600083D
:10001000A5060008AB060008B106000800000000B5
:10002000000000000000000000000000B70600080B
:10003000C306000800000000CF060008DB06000829
:10004000250B0008250B0008250B0008250B0008D0
:10005000250B0008250B0008250B0008250B0008C0
:10006000E9060008250B0008250B0008250B0008F1
:10007000250B0008250B0008250B0008250B0008A0
:10008000250B0008250B0008250B0008250B000890
:10009000250B0008250B0008250B0008250B000880
:1000A000250B0008250B0008250B0008250B000870
:1000B000250B0008250B0008250B0008250B000860
:1000C000250B0008250B0008250B0008250B000850
:1000D000250B0008250B0008250B0008250B000840
:1000E000250B0008250B0008250B00080000000068
:1000F0000000000000000000000000000000000000
:0C01000000000000000000005FF808F1A3
:10010C0010B5054C237833B9044B13B10448AFF345
:10011C0000800123237010BD780200200000000035
:10012C008C34000808B5034B1BB103490348AFF3EB
:10013C00008008BD000000007C0200208C34000808
:10014C00034613F8012B002AFBD1181A013870470B
:10015C0080B588B000AF07F1100300221A605A6016
:10016C009A60DA602E4B9B692D4A43F02003936111
:10017C002B4B9B6903F02003FB60FB68284B9B69AE
:10018C00274A43F004039361254B9B6903F0040356
:10019C00BB60BB68224B9B69214A43F00803936107
:1001AC001F4B9B6903F008037B607B6800220A21CC
:1001BC001C4800F0CBFF02233B6111237B61002321
:1001CC00BB610223FB6107F110031946154800F0CF
:1001DC0039FE04233B61144B7B610223BB6107F1A5
:1001EC00100319460F4800F02DFE08233B61012334
:1001FC007B610023BB610323FB6107F110031946EC
:10020C00084800F01FFE00220021082000F0E3FD4A
:10021C00082000F0FCFD00BF2037BD4680BD00BFAC
:10022C0000100240000801400000211080B58EB083
:10023C0004AF00F073FC00F021F9FFF789FF00F028
:10024C00D1FB00F0A7FA00F063F900F019FB7B4B2F
:10025C007B4A7C497C4802F099FC7B48FFF770FF95
:10026C0003469AB264237849784802F0F2FA4FF4C4
:10027C00FA7000F0B5FC764801F090FC002174484F
:10028C0001F02EFD734801F089FC00237B620023F2
:10029C003B624FF49673FB616F4B1B68802BF8D954
:1002AC000023BB6110E0BB6901336C4A52F8233068
:1002BC00FA699A4205D9BB690133684A52F823306E
:1002CC00FB61BB690133BB61BB697F2BEBDD002399
:1002DC007B6115E07B690133604A52F82330FA697F
:1002EC009A4205D25E4A7B69134401221A7004E0DB
:1002FC005B4A7B69134400221A707B6901337B6172
:10030C007B697F2BE6DD544B00221A60554B002293
:10031C001A6000233B610CE0514A3B6913441B7883
:10032C001A46504B1B6813444E4A13603B69013309
:10033C003B613B697F2BEFDD4A4B1A684A4B1B68CC
:10034C009A4203D93B6A01333B6202E07B6A013378
:10035C007B623B6A4FF47A7203FB02F2396A7B6A66
:10036C000B44B2FBF3F37B607B68B3F5FA7F04D9E3
:10037C003E4B1B6801333D4A13607B68B3F5FA7F33
:10038C0004D23A4B1B68013B384A1360374B1B684D
:10039C00212B02DC354B22221A60344B1B68342B88
:1003AC0002DD324B34221A60304B1A68304B1B681A
:1003BC001146304A42F823102D4B1B687F2B05D871
:1003CC002B4B1B6801332A4A136002E0284B002296
:1003DC001A600023FB600023BB6009E0254ABB6860
:1003EC0052F82330FA681344FB60BB680133BB60DE
:1003FC00BB687F2BF2DDFB68DB091B4A13601C4BCF
:10040C001B68012B7FF445AF184B1B68164A12680A
:10041C00029201937B6800933B6A7A6A16490A48F8
:10042C0002F0B4FB0848FFF78BFE03469AB2642334
:10043C000549064802F00DFA2BE700BFA43400086A
:10044C00B0340008BC340008940200201C070020C3
:10045C008C060020D4060020940300209803002072
:10046C00A405002028060020040000200000002025
:10047C002C06002008000020D434000880B590B071
:10048C0000AF07F1180328220021184602F076FB72
:10049C003B1D00221A605A609A60DA601A610123CF
:1004AC00BB614FF48033FB6100233B620123BB62D1
:1004BC0002237B634FF48033BB634FF4E013FB6385
:1004CC0007F11803184600F07BFE0346002B01D001
:1004DC0000F019F80F237B600223BB600023FB6044
:1004EC004FF480633B6100237B613B1D0221184666
:1004FC0001F0E8F80346002B01D000F004F800BF2F
:10050C004037BD4680BD80B400AF72B600BFFEE779
:10051C0080B500AF154B164A1A60144B00225A6076
:10052C00124B00229A60114B0022DA600F4B002212
:10053C001A610E4B00225A610C4B4FF400729A61F7
:10054C000A4B00221A62094B00225A62074B002206
:10055C009A62064B0A22DA62044801F04BFA03460F
:10056C00002B01D0FFF7CFFF00BF80BD300600206D
:10057C000030014080B58AB000AF786007F11403F9
:10058C0000221A605A609A60DA607B681B68224A03
:10059C0093423DD1214B9B69204A43F48053936194
:1005AC001E4B9B6903F480533B613B691B4B9B695E
:1005BC001A4A43F008039361184B9B6903F0080334
:1005CC00FB60FB6828237B610023BB610023FB617C
:1005DC0007F114031946124800F034FC10237B6118
:1005EC000223BB6103233B6207F1140319460C4839
:1005FC0000F028FC0B4B5B687B627B6A43F0E0638A
:10060C007B627B6A43F001037B62064A7B6A536020
:10061C0000BF2837BD4680BD0030014000100240AD
:10062C00000C01400000014080B485B000AF154BB8
:10063C009B69144A43F001039361124B9B6903F0CD
:10064C000103BB60BB680F4BDB690E4A43F0805360
:10065C00D3610C4BDB6903F080537B607B680A4BE6
:10066C005B68FB60FB6823F0E063FB60FB6843F0B6
:10067C000073FB60044AFB68536000BF1437BD462F
:10068C0080BC7047001002400000014080B400AFF5
:10069C00FEE780B400AFFEE780B400AFFEE780B4A5
:1006AC0000AFFEE780B400AFFEE780B400AF00BF40
:1006BC00BD4680BC704780B400AF00BFBD4680BC57
:1006CC00704780B400AF00BFBD4680BC704780B59A
:1006DC0000AF00F069FA00BF80BD000080B500AF2C
:1006EC000B4A0C4B1B68526A0B4941F82320084BF0
:1006FC0000225A62074B1B68812B04D8054B1B68E0
:10070C000133044A1360042000F038FD00BF80BDA3
:10071C0000080040940300209803002080B586B0A8
:10072C0000AF7860144A154BD31A7B617B693B612F
:10073C00134B1B68002B02D1114B124A1A60104B41
:10074C001A687B6813443A699A4207D202F0ECF9B2
:10075C0003460C221A604FF0FF3309E0084B1B686C
:10076C00FB60074B1A687B681344054A1360FB68EF
:10077C0018461837BD4680BD00500020000400000C
:10078C00880600207807002080B400AF00BFBD466B
:10079C0080BC704780B58EB000AF07F128030022F3
:1007AC001A605A609A60DA6007F1200300221A601E
:1007BC005A603B1D00221A605A609A60DA601A6116
:1007CC005A619A612C4B2D4A1A602B4B00225A60AD
:1007DC00294B00229A60284B6422DA60264B0022B7
:1007EC001A61254B00229A61234801F087F90346D0
:1007FC00002B01D0FFF787FE4FF48053BB6207F14B
:10080C00280319461C4801F011FC0346002B01D0AB
:10081C00FFF779FE184801F00BFA0346002B01D0C4
:10082C00FFF771FE00233B6200237B6207F120037C
:10083C001946114801F062FF0346002B01D0FFF767
:10084C0062FE60237B603223BB600023FB600023CD
:10085C007B613B1D00221946074801F029FB03462A
:10086C00002B01D0FFF74FFE034800F089F800BFC2
:10087C003837BD4680BD00BF8C0600200004004008
:10088C0080B586B000AF07F1080300221A605A60E9
:10089C009A60DA603B4600221A605A601D4B1E4A71
:1008AC001A601C4B00225A601A4B00229A60194B9A
:1008BC004FF6FF72DA60174B00221A61154B0022BB
:1008CC009A61144801F01AF90346002B01D0FFF786
:1008DC001AFE4FF48053BB6007F1080319460D480C
:1008EC0001F0A4FB0346002B01D0FFF70CFE002304
:1008FC003B6000237B603B461946064801F0FEFE38
:10090C000346002B01D0FFF7FEFD00BF1837BD4694
:10091C0080BD00BFD40600200008004080B485B024
:10092C0000AF78607B681B68124A93420CD1124B63
:10093C00DB69114A43F00203D3610F4BDB6903F00F
:10094C000203FB60FB6810E07B681B680B4A934258
:10095C000BD1094BDB69084A43F00403D361064B06
:10096C00DB6903F00403BB60BB6800BF1437BD46F2
:10097C0080BC70470004004000100240000800409A
:10098C0080B588B000AF786007F1100300221A60C0
:10099C005A609A60DA607B681B680F4A934217D1E1
:1009AC000E4B9B690D4A43F0040393610B4B9B69FF
:1009BC0003F00403FB60FB6840233B6102237B6173
:1009CC000223FB6107F110031946054800F03AFABF
:1009DC0000BF2037BD4680BD00040040001002401F
:1009EC000008014080B500AF114B124A1A60104B41
:1009FC004FF4E1325A600E4B00229A600C4B0022ED
:100A0C00DA600B4B00221A61094B0C225A61084B1D
:100A1C0000229A61064B0022DA61054801F0CCFEF7
:100A2C000346002B01D0FFF76EFD00BF80BD00BF59
:100A3C001C0700200038014080B588B000AF7860FA
:100A4C0007F1100300221A605A609A60DA607B6822
:100A5C001B681C4A934231D11B4B9B691A4A43F4C5
:100A6C0080439361184B9B6903F48043FB60FB68E4
:100A7C00154B9B69144A43F004039361124B9B6919
:100A8C0003F00403BB60BB684FF400733B610223AB
:100A9C007B610323FB6107F1100319460B4800F03F
:100AAC00D1F94FF480633B6100237B610023BB6170
:100ABC0007F110031946054800F0C4F900BF2037B0
:100ACC00BD4680BD003801400010024000080140C6
:100ADC000C480D490D4A002302E0D458C45004338D
:100AEC00C4188C42F9D30A4A0A4C002301E0136063
:100AFC000432A242FBD3FFF747FE02F01BF8FFF7CC
:100B0C0095FB704700000020780200205835000843
:100B1C007802002074070020FEE7000080B500AFCB
:100B2C00084B1B68074A43F010031360032000F0C6
:100B3C0047F90F2000F008F8FFF776FD0023184660
:100B4C0080BD00BF0020024080B582B000AF78604D
:100B5C00124B1A68124B1B7819464FF47A73B3FB7D
:100B6C00F1F3B2FBF3F3184600F05FF90346002BE8
:100B7C0001D001230EE07B680F2B0AD80022796884
:100B8C004FF0FF3000F027F9064A7B681360002312
:100B9C0000E0012318460837BD4680BD080200203E
:100BAC00100200200C02002080B400AF054B1B7813
:100BBC001A46054B1B681344034A136000BFBD461D
:100BCC0080BC7047100200206007002080B400AF8A
:100BDC00024B1B681846BD4680BC7047600700205E
:100BEC0080B584B000AF7860FFF7F0FFB8607B6829
:100BFC00FB60FB68B3F1FF3F05D00A4B1B781A462C
:100C0C00FB681344FB6000BFFFF7E0FF0246BB68C4
:100C1C00D31AFA689A42F7D800BF00BF1037BD4606
:100C2C0080BD00BF1002002080B485B000AF78609A
:100C3C007B6803F00703FB600C4BDB68BB60BA6896
:100C4C004FF6FF031340BB60FB681A02BB681343EB
:100C5C0043F0BF6343F40033BB60044ABB68D3600A
:100C6C0000BF1437BD4680BC704700BF00ED00E0EC
:100C7C0080B400AF044BDB681B0A03F00703184673
:100C8C00BD4680BC704700BF00ED00E080B483B06F
:100C9C0000AF0346FB7197F90730002B0BDBFB7998
:100CAC0003F01F02064997F907305B09012000FA8F
:100CBC0002F241F8232000BF0C37BD4680BC7047C0
:100CCC0000E100E080B483B000AF03463960FB71F3
:100CDC0097F90730002B0ADB3B68DAB20C4997F91D
:100CEC0007301201D2B20B4483F800230AE03B68B0
:100CFC00DAB20849FB7903F00F03043B1201D2B2BC
:100D0C000B441A7600BF0C37BD4680BC704700BF41
:100D1C0000E100E000ED00E080B489B000AFF860C5
:100D2C00B9607A60FB6803F00703FB61FB69C3F1F0
:100D3C000703042B28BF0423BB61FB690433062B78
:100D4C0002D9FB69033B00E000237B614FF0FF32CB
:100D5C00BB6902FA03F3DA43BB681A407B699A4019
:100D6C004FF0FF317B6901FA03F3D9437B680B40E9
:100D7C00134318462437BD4680BC704780B582B0FB
:100D8C0000AF78607B68013BB3F1807F01D3012316
:100D9C000FE00A4A7B68013B53600F214FF0FF3094
:100DAC00FFF790FF054B00229A60044B07221A6054
:100DBC00002318460837BD4680BD00BF10E000E098
:100DCC0080B582B000AF78607868FFF72DFF00BF68
:100DDC000837BD4680BD80B586B000AF0346B9600C
:100DEC007A60FB7300237B61FFF742FF78617A68BE
:100DFC00B9687869FFF790FF024697F90F301146F2
:100E0C001846FFF75FFF00BF1837BD4680BD80B5A1
:100E1C0082B000AF0346FB7197F907301846FFF715
:100E2C0035FF00BF0837BD4680BD80B582B000AF2E
:100E3C0078607868FFF7A2FF034618460837BD466E
:100E4C0080BD000080B48BB000AF786039600023A7
:100E5C007B6200233B6269E101227B6A02FA03F3A5
:100E6C00FB613B681B68FA691340BB61BA69FB699B
:100E7C009A4240F058813B685B689A4A93425ED034
:100E8C00984A934275D8984A934258D0964A9342BE
:100E9C006FD8964A934252D0944A934269D8944A56
:100EAC0093424CD0924A934263D8924A934246D092
:100EBC00904A93425DD8122B2AD8122B59D801A2F2
:100ECC0052F823F04B0F0008250F0008370F0008CD
:100EDC00790F00087F0F00087F0F00087F0F0008B4
:100EEC007F0F00087F0F00087F0F00087F0F00089E
:100EFC007F0F00087F0F00087F0F00087F0F00088E
:100F0C007F0F00087F0F00082D0F0008410F00080D
:100F1C00794A934213D02CE03B68DB683B6229E0B2
:100F2C003B68DB6804333B6224E03B68DB680833D6
:100F3C003B621FE03B68DB680C333B621AE03B68AA
:100F4C009B68002B02D104233B6213E03B689B6837
:100F5C00012B05D108233B627B68FA691A6109E011
:100F6C0008233B627B68FA695A6103E000233B6209
:100F7C0000E000BFBB69FF2B01D87B6801E07B68F8
:100F8C0004337B61BB69FF2B02D87B6A9B0002E0B8
:100F9C007B6A083B9B003B617B691A680F213B69AC
:100FAC0001FA03F3DB431A40396A3B6901FA03F394
:100FBC001A437B691A603B685B6803F08053002B13
:100FCC0000F0B1804D4B9B694C4A43F00103936197
:100FDC004A4B9B6903F00103BB60BB68484A7B6AC0
:100FEC009B08023352F82330FB607B6A03F0030347
:100FFC009B000F2202FA03F3DB43FA681340FB60F9
:10100C007B68404A934213D07B683F4A93420DD091
:10101C007B683E4A934207D07B683D4A934201D19C
:10102C00032306E0042304E0022302E0012300E092
:10103C0000237A6A02F0030292009340FA68134389
:10104C00FB602F497B6A9B080233FA6841F8232026
:10105C003B685B6803F48033002B06D02D4B1A6879
:10106C002C49BB6913430B6006E02A4B1A68BB6919
:10107C00DB43284913400B603B685B6803F4003387
:10108C00002B06D0234B5A682249BB6913434B6093
:10109C0006E0204B5A68BB69DB431E4913404B608A
:1010AC003B685B6803F48013002B06D0194B9A68DD
:1010BC001849BB6913438B6006E0164B9A68BB69F1
:1010CC00DB43144913408B603B685B6803F40013EB
:1010DC00002B21D00F4BDA680E49BB691343CB6050
:1010EC0021E000BF0000321000003110000022107F
:1010FC00000021100000121000001110001002401E
:10110C000000014000080140000C014000100140AB
:10111C0000140140000401400B4BDA68BB69DB434F
:10112C0009491340CB607B6A01337B623B681A68C8
:10113C007B6A22FA03F3002B7FF48EAE00BF00BF54
:10114C002C37BD4680BC70470004014080B483B08E
:10115C0000AF78600B467B8013467B707B78002B4E
:10116C0003D07A887B681A6103E07B881A047B6859
:10117C001A6100BF0C37BD4680BC704780B582B089
:10118C0000AF0346FB80084B5A69FB881340002BC9
:10119C0006D0054AFB885361FB88184600F006F818
:1011AC0000BF0837BD4680BD0004014080B483B049
:1011BC0000AF0346FB8000BF0C37BD4680BC7047B8
:1011CC0080B586B000AF78607B68002B01D101231D
:1011DC0072E27B681B6803F00103002B00F0878030
:1011EC00924B5B6803F00C03042B0CD08F4B5B68A9
:1011FC0003F00C03082B12D18C4B5B6803F4803387
:10120C00B3F5803F0BD1894B1B6803F40033002BE3
:10121C006CD07B685B68002B68D101234CE27B6847
:10122C005B68B3F5803F06D1804B1B687F4A43F463
:10123C00803313602EE07B685B68002B0CD17B4BFA
:10124C001B687A4A23F480331360784B1B68774A07
:10125C0023F4802313601DE07B685B68B3F5A02F3B
:10126C000CD1724B1B68714A43F4802313606F4B93
:10127C001B686E4A43F4803313600BE06B4B1B68A6
:10128C006A4A23F480331360684B1B68674A23F463
:10129C00802313607B685B68002B13D0FFF796FCF0
:1012AC00386108E0FFF792FC02463B69D31A642BC5
:1012BC0001D9032300E25D4B1B6803F40033002BC0
:1012CC00F0D014E0FFF782FC386108E0FFF77EFCF9
:1012DC0002463B69D31A642B01D90323ECE1534B2F
:1012EC001B6803F40033002BF0D100E000BF7B68D7
:1012FC001B6803F00203002B63D04C4B5B6803F0BC
:10130C000C03002B0BD0494B5B6803F00C03082B30
:10131C001CD1464B5B6803F48033002B16D1434B36
:10132C001B6803F00203002B05D07B681B69012BA3
:10133C0001D00123C0E13D4B1B6823F0F8027B6810
:10134C005B69DB00394913430B603AE07B681B692E
:10135C00002B20D0364B01221A60FFF737FC386186
:10136C0008E0FFF733FC02463B69D31A022B01D984
:10137C000323A1E12D4B1B6803F00203002BF0D0DB
:10138C002A4B1B6823F0F8027B685B69DB0027495A
:10139C0013430B6015E0264B00221A60FFF716FC76
:1013AC00386108E0FFF712FC02463B69D31A022BA6
:1013BC0001D9032380E11D4B1B6803F00203002BB2
:1013CC00F0D17B681B6803F00803002B3AD07B68D4
:1013DC009B69002B19D0174B01221A60FFF7F6FB03
:1013EC00386108E0FFF7F2FB02463B69D31A022B87
:1013FC0001D9032360E10D4B5B6A03F00203002B60
:10140C00F0D0012000F0D8FA1CE00A4B00221A6040
:10141C00FFF7DCFB38610FE0FFF7D8FB02463B69B6
:10142C00D31A022B08D9032346E100BF0010024057
:10143C000000424280044242924B5B6A03F002037A
:10144C00002BE9D17B681B6803F00403002B00F030
:10145C00A6800023FB758B4BDB6903F08053002BBC
:10146C000DD1884BDB69874A43F08053D361854BA0
:10147C00DB6903F08053BB60BB680123FB75824BB7
:10148C001B6803F48073002B18D17F4B1B687E4ABA
:10149C0043F480731360FFF799FB386108E0FFF7A2
:1014AC0095FB02463B69D31A642B01D9032303E154
:1014BC00754B1B6803F48073002BF0D07B68DB68E2
:1014CC00012B06D16F4B1B6A6E4A43F0010313626A
:1014DC002DE07B68DB68002B0CD16A4B1B6A694AD8
:1014EC0023F001031362674B1B6A664A23F0040363
:1014FC0013621CE07B68DB68052B0CD1614B1B6A0B
:10150C00604A43F0040313625E4B1B6A5D4A43F06E
:10151C00010313620BE05B4B1B6A5A4A23F0010375
:10152C001362584B1B6A574A23F0040313627B68FF
:10153C00DB68002B15D0FFF749FB38610AE0FFF799
:10154C0045FB02463B69D31A41F28832934201D9DA
:10155C000323B1E04B4B1B6A03F00203002BEED0CC
:10156C0014E0FFF733FB38610AE0FFF72FFB02466C
:10157C003B69D31A41F28832934201D903239BE091
:10158C00404B1B6A03F00203002BEED1FB7D012BB9
:10159C0005D13C4BDB693B4A23F08053D3617B681C
:1015AC00DB69002B00F08780364B5B6803F00C0383
:1015BC00082B61D07B68DB69022B46D1334B0022B0
:1015CC001A60FFF703FB386108E0FFF7FFFA0246E9
:1015DC003B69D31A022B01D903236DE0294B1B68FD
:1015EC0003F00073002BF0D17B681B6AB3F5803FCE
:1015FC0008D1244B5B6823F400327B689B6821493B
:10160C0013434B601F4B5B6823F474127B68196A9D
:10161C007B685B6A0B431B4913434B601B4B0122DA
:10162C001A60FFF7D3FA386108E0FFF7CFFA0246E9
:10163C003B69D31A022B01D903233DE0114B1B68E4
:10164C0003F00073002BF0D035E0104B00221A6031
:10165C00FFF7BCFA386108E0FFF7B8FA02463B69BD
:10166C00D31A022B01D9032326E0064B1B6803F087
:10167C000073002BF0D11EE07B68DB69012B07D1D6
:10168C00012319E00010024000700040600042424B
:10169C000B4B5B68FB60FB6803F480327B681B6A56
:1016AC009A4206D1FB6803F470127B685B6A9A421B
:1016BC0001D0012300E0002318461837BD4680BD39
:1016CC000010024080B584B000AF786039607B6850
:1016DC00002B01D10123D0E06A4B1B6803F00703F8
:1016EC003A689A4210D9674B1B6823F00702654988
:1016FC003B6813430B60634B1B6803F007033A68AA
:10170C009A4201D00123B8E07B681B6803F0020306
:10171C00002B20D07B681B6803F00403002B05D042
:10172C00594B5B68584A43F4E06353607B681B6811
:10173C0003F00803002B05D0534B5B68524A43F46B
:10174C0060535360504B5B6823F0F0027B689B68DE
:10175C004D4913434B607B681B6803F00103002B5E
:10176C0040D07B685B68012B07D1474B1B6803F4A7
:10177C000033002B15D101237FE07B685B68022BC3
:10178C0007D1414B1B6803F00073002B09D10123D7
:10179C0073E03D4B1B6803F00203002B01D10123C6
:1017AC006BE0394B5B6823F003027B685B6836495E
:1017BC0013434B60FFF70AFAF8600AE0FFF706FAEA
:1017CC000246FB68D31A41F28832934201D90323B3
:1017DC0053E02D4B5B6803F00C027B685B689B004D
:1017EC009A42EBD1274B1B6803F007033A689A42E5
:1017FC0010D2244B1B6823F0070222493B68134389
:10180C000B60204B1B6803F007033A689A4201D027
:10181C00012332E07B681B6803F00403002B08D023
:10182C00194B5B6823F4E0627B68DB681649134351
:10183C004B607B681B6803F00803002B09D0124B2C
:10184C005B6823F460527B681B69DB000E49134311
:10185C004B6000F021F802460B4B5B681B0903F050
:10186C000F030A49CB5C22FA03F3094A1360094BB4
:10187C001B681846FFF768F9002318461037BD4659
:10188C0080BD00BF0020024000100240043500085B
:10189C00080200200C02002090B48AB000AF294B43
:1018AC003C1D0FCB84E80F0040F201233B8000234A
:1018BC00FB610023BB6100237B6200237B6100235F
:1018CC003B62214B5B68FB61FB6903F00C03042B4F
:1018DC0002D0082B03D02BE01C4B3B622BE0FB69A6
:1018EC009B0C03F00F0328333B4413F8243C7B611F
:1018FC00FB6903F48033002B12D0134B5B685B0C39
:10190C0003F0010328333B4413F8283CBB617B698B
:10191C000E4A03FB02F2BB69B2FBF3F37B6204E0F9
:10192C007B690B4A02FB03F37B627B6A3B6202E03E
:10193C00064B3B6200BF3B6A18462837BD4690BC3D
:10194C00704700BFF43400080010024000127A0007
:10195C0000093D0080B400AF024B1B681846BD4621
:10196C0080BC70470802002080B500AFFFF7F2FF83
:10197C000246054B5B681B0A03F007030349CB5C6B
:10198C0022FA03F3184680BD0010024014350008FB
:10199C0080B500AFFFF7DEFF0246054B5B68DB0A44
:1019AC0003F007030349CB5C22FA03F3184680BD0E
:1019BC00001002401435000880B485B000AF786088
:1019CC000A4B1B680A4AA2FB03235B0A7A6802FBD8
:1019DC0003F3FB6000BFFB685A1EFA60002BF9D1C1
:1019EC0000BF00BF1437BD4680BC70470802002002
:1019FC00D34D621080B582B000AF78607B68002B4D
:101A0C0001D1012376E07B685B6A002B08D17B68EF
:101A1C005B68B3F5827F09D07B680022DA6105E050
:101A2C007B6800221A617B6800225A617B68002265
:101A3C009A627B6893F85130DBB2002B06D17B683D
:101A4C00002283F850207868FEF794FD7B68022210
:101A5C0083F851207B681B681A687B681B6822F02E
:101A6C0040021A607B685B6803F482727B689B6837
:101A7C0003F404431A437B68DB6803F400631A43E2
:101A8C007B681B6903F002031A437B685B6903F0F4
:101A9C0001031A437B689B6903F400731A437B6848
:101AAC00DB6903F038031A437B681B6A03F080037D
:101ABC0042EA03017B689B6A03F400527B681B6853
:101ACC000A431A607B689B691A0C7B681B6802F0DE
:101ADC0004025A607B681B68DA697B681B6822F415
:101AEC000062DA617B6800225A657B68012283F808
:101AFC005120002318460837BD4680BD80B582B002
:101B0C0000AF78607B68002B01D1012341E07B683A
:101B1C0093F83D30DBB2002B06D17B68002283F8B2
:101B2C003C207868FEF7FAFE7B68022283F83D20A1
:101B3C007B681A687B6804331946104600F03AFB40
:101B4C007B68012283F846207B68012283F83E20C3
:101B5C007B68012283F83F207B68012283F84020B8
:101B6C007B68012283F841207B68012283F84220A4
:101B7C007B68012283F843207B68012283F8442090
:101B8C007B68012283F845207B68012283F83D2085
:101B9C00002318460837BD4680BD000080B485B0D0
:101BAC0000AF78607B6893F83D30DBB2012B01D03D
:101BBC00012332E07B68022283F83D207B681B689E
:101BCC00184A93420ED07B681B68B3F1804F09D042
:101BDC007B681B68144A934204D07B681B68134AC9
:101BEC00934211D17B681B689B6803F00703FB6071
:101BFC00FB68062B10D07B681B681A687B681B6817
:101C0C0042F001021A6007E07B681B681A687B6867
:101C1C001B6842F001021A60002318461437BD46B7
:101C2C0080BC7047002C01400004004000080040BC
:101C3C0080B582B000AF78607B68002B01D10123A6
:101C4C0041E07B6893F83D30DBB2002B06D17B681A
:101C5C00002283F83C20786800F039F87B68022277
:101C6C0083F83D207B681A687B680433194610465C
:101C7C0000F0A0FA7B68012283F846207B680122E1
:101C8C0083F83E207B68012283F83F207B68012289
:101C9C0083F840207B68012283F841207B68012275
:101CAC0083F842207B68012283F843207B68012261
:101CBC0083F844207B68012283F845207B6801224D
:101CCC0083F83D20002318460837BD4680BD80B4FC
:101CDC0083B000AF786000BF0C37BD4680BC704746
:101CEC0080B584B000AF786039603B68002B09D1B7
:101CFC007B6893F83E30DBB2012B14BF0123002329
:101D0C00DBB222E03B68042B09D17B6893F83F30AF
:101D1C00DBB2012B14BF01230023DBB215E03B68BF
:101D2C00082B09D17B6893F84030DBB2012B14BF30
:101D3C0001230023DBB208E07B6893F84130DBB26F
:101D4C00012B14BF01230023DBB2002B01D0012394
:101D5C00A4E03B68002B04D17B68022283F83E2070
:101D6C0013E03B68042B04D17B68022283F83F20EC
:101D7C000BE03B68082B04D17B68022283F84020DF
:101D8C0003E07B68022283F841203B680C2B41D88E
:101D9C0001A252F823F000BFD91D0008211E000833
:101DAC00211E0008211E0008EB1D0008211E000842
:101DBC00211E0008211E0008FD1D0008211E000820
:101DCC00211E0008211E00080F1E00087B681B68DE
:101DDC00DA687B681B6842F00202DA601BE07B6801
:101DEC001B68DA687B681B6842F00402DA6012E058
:101DFC007B681B68DA687B681B6842F00802DA6053
:101E0C0009E07B681B68DA687B681B6842F010028B
:101E1C00DA6000E000BF7B681B6801223968184655
:101E2C0000F048FC7B681B681E4A934207D17B6814
:101E3C001B685A6C7B681B6842F400425A647B68CE
:101E4C001B68184A93420ED07B681B68B3F1804F15
:101E5C0009D07B681B68144A934204D07B681B68CA
:101E6C00124A934211D17B681B689B6803F00703ED
:101E7C00FB60FB68062B10D07B681B681A687B68BC
:101E8C001B6842F001021A6007E07B681B681A6845
:101E9C007B681B6842F001021A6000231846103759
:101EAC00BD4680BD002C01400004004000080040ED
:101EBC0080B584B000AFF860B9607A60FB6893F8C5
:101ECC003C30012B01D10223ACE0FB68012283F8EA
:101EDC003C207B680C2B00F29F8001A252F823F06F
:101EEC00211F0008252000082520000825200008B7
:101EFC00611F000825200008252000082520000867
:101F0C00A31F000825200008252000082520000814
:101F1C00E31F0008FB681B68B968184600F0ACF9B1
:101F2C00FB681B689A69FB681B6842F008029A619F
:101F3C00FB681B689A69FB681B6822F004029A61B3
:101F4C00FB681B689969BB681A69FB681B680A43C4
:101F5C009A6162E0FB681B68B968184600F0F2F9F8
:101F6C00FB681B689A69FB681B6842F400629A6103
:101F7C00FB681B689A69FB681B6822F480629A6193
:101F8C00FB681B689969BB681B691A02FB681B68B4
:101F9C000A439A6141E0FB681B68B968184600F077
:101FAC003BFAFB681B68DA69FB681B6842F00802A5
:101FBC00DA61FB681B68DA69FB681B6822F00402B3
:101FCC00DA61FB681B68D969BB681A69FB681B6816
:101FDC000A43DA6121E0FB681B68B968184600F017
:101FEC0085FAFB681B68DA69FB681B6842F40062BF
:101FFC00DA61FB681B68DA69FB681B6822F4806293
:10200C00DA61FB681B68D969BB681B691A02FB683B
:10201C001B680A43DA6100E000BFFB68002283F80A
:10202C003C20002318461037BD4680BD80B584B0D7
:10203C0000AF786039607B6893F83C30012B01D19C
:10204C000223B3E07B68012283F83C207B680222E8
:10205C0083F83D207B681B689B68FB60FB6823F062
:10206C007703FB60FB6823F47F43FB607B681B6892
:10207C00FA689A603B681B68B3F5005F3ED0B3F515
:10208C00005F00F28780B3F5805F00F08580B3F5C8
:10209C00805F7FD8702B1AD0702B7BD8602B50D0E0
:1020AC00602B77D8502B3CD0502B73D8402B58D06A
:1020BC00402B6FD8302B64D0302B6BD8202B60D0BA
:1020CC00202B67D8002B5CD0102B5AD062E07B6899
:1020DC0018683B6899683B685A683B68DB6800F095
:1020EC00CAFA7B681B689B68FB60FB6843F077034C
:1020FC00FB607B681B68FA689A604EE07B68186826
:10210C003B6899683B685A683B68DB6800F0B3FA37
:10211C007B681B689A687B681B6842F480429A60F3
:10212C003BE07B6818683B6859683B68DB681A467B
:10213C0000F02AFA7B681B685021184600F081FADF
:10214C002BE07B6818683B6859683B68DB681A466B
:10215C0000F048FA7B681B686021184600F071FAA1
:10216C001BE07B6818683B6859683B68DB681A465B
:10217C0000F00AFA7B681B684021184600F061FAEF
:10218C000BE07B681A683B681B681946104600F028
:10219C0058FA02E000BF00E000BF7B68012283F820
:1021AC003D207B68002283F83C2000231846103722
:1021BC00BD4680BD80B485B000AF786039607B6867
:1021CC001B68FB607B68294A93420BD07B68B3F198
:1021DC00804F07D07B68264A934203D07B68254A00
:1021EC00934208D1FB6823F07003FB603B685B688B
:1021FC00FA681343FB607B681C4A93420BD07B68E4
:10220C00B3F1804F07D07B68194A934203D07B68A7
:10221C00184A934208D1FB6823F44073FB603B6877
:10222C00DB68FA681343FB60FB6823F080023B68B1
:10223C005B691343FB607B68FA681A603B689A68B9
:10224C007B68DA623B681A687B689A627B68074A2B
:10225C00934203D13B681A697B681A637B6801223D
:10226C005A6100BF1437BD4680BC7047002C01403A
:10227C00000400400008004080B487B000AF7860D4
:10228C0039607B681B6A23F001027B681A627B68E9
:10229C001B6A7B617B685B683B617B689B69FB604D
:1022AC00FB6823F07003FB60FB6823F00303FB6007
:1022BC003B681B68FA681343FB607B6923F00203DD
:1022CC007B613B689B687A6913437B617B681C4A22
:1022DC0093420CD17B6923F008037B613B68DB687C
:1022EC007A6913437B617B6923F004037B617B6810
:1022FC00134A934211D13B6923F480733B613B69D0
:10230C0023F400733B613B685B693A6913433B619F
:10231C003B689B693A6913433B617B683A695A6035
:10232C007B68FA689A613B685A687B685A637B6879
:10233C007A691A6200BF1C37BD4680BC704700BF6B
:10234C00002C014080B487B000AF786039607B68A6
:10235C001B6A23F010027B681A627B681B6A7B6124
:10236C007B685B683B617B689B69FB60FB6823F463
:10237C00E043FB60FB6823F44073FB603B681B6825
:10238C001B02FA681343FB607B6923F020037B611B
:10239C003B689B681B017A6913437B617B681D4A10
:1023AC0093420DD17B6923F080037B613B68DB6832
:1023BC001B017A6913437B617B6923F040037B61CA
:1023CC007B68144A934213D13B6923F480633B61CD
:1023DC003B6923F400633B613B685B699B003A6992
:1023EC0013433B613B689B699B003A6913433B6118
:1023FC007B683A695A607B68FA689A613B685A68EC
:10240C007B689A637B687A691A6200BF1C37BD4689
:10241C0080BC7047002C014080B487B000AF78605E
:10242C0039607B681B6A23F480727B681A627B6854
:10243C001B6A7B617B685B683B617B68DB69FB606B
:10244C00FB6823F07003FB60FB6823F00303FB6065
:10245C003B681B68FA681343FB607B6923F40073C9
:10246C007B613B689B681B027A6913437B617B68C9
:10247C001D4A93420DD17B6923F400637B613B6859
:10248C00DB681B027A6913437B617B6923F48063ED
:10249C007B617B68144A934213D13B6923F48053CC
:1024AC003B613B6923F400533B613B685B691B0157
:1024BC003A6913433B613B689B691B013A691343BF
:1024CC003B617B683A695A607B68FA68DA613B6801
:1024DC005A687B68DA637B687A691A6200BF1C37BA
:1024EC00BD4680BC704700BF002C014080B487B053
:1024FC0000AF786039607B681B6A23F480527B687C
:10250C001A627B681B6A3B617B685B687B617B68DA
:10251C00DB69FB60FB6823F4E043FB60FB6823F49E
:10252C004073FB603B681B681B02FA681343FB603B
:10253C003B6923F400533B613B689B681B033A697E
:10254C0013433B617B680F4A934209D17B6923F4A7
:10255C0080437B613B685B699B017A6913437B61B8
:10256C007B687A695A607B68FA68DA613B685A68FA
:10257C007B681A647B683A691A6200BF1C37BD46D7
:10258C0080BC7047002C014080B487B000AFF8606D
:10259C00B9607A60FB681B6A7B61FB681B6A23F07D
:1025AC000102FB681A62FB689B693B613B6923F083
:1025BC00F0033B617B681B013A6913433B617B6908
:1025CC0023F00A037B617A69BB6813437B61FB6868
:1025DC003A699A61FB687A691A6200BF1C37BD467A
:1025EC0080BC704780B487B000AFF860B9607A6087
:1025FC00FB681B6A23F01002FB681A62FB689B697C
:10260C007B61FB681B6A3B617B6923F470437B61D4
:10261C007B681B037A6913437B613B6923F0A0033E
:10262C003B61BB681B013A6913433B61FB687A69E8
:10263C009A61FB683A691A6200BF1C37BD4680BCC0
:10264C00704780B485B000AF786039607B689B6858
:10265C00FB60FB6823F07003FB603A68FB68134374
:10266C0043F00703FB607B68FA689A6000BF14377D
:10267C00BD4680BC704780B487B000AFF860B960CD
:10268C007A603B60FB689B687B617B6923F47F43CA
:10269C007B613B681A027B681A43BB6813437A69F7
:1026AC0013437B61FB687A699A6000BF1C37BD4697
:1026BC0080BC704780B487B000AFF860B9607A60B6
:1026CC00BB6803F01F03012202FA03F37B61FB6872
:1026DC001A6A7B69DB431A40FB681A62FB681A6A48
:1026EC00BB6803F01F03796801FA03F31A43FB6814
:1026FC001A6200BF1C37BD4680BC704780B485B0E1
:10270C0000AF786039607B6893F83C30012B01D1C5
:10271C00022346E07B68012283F83C207B6802227E
:10272C0083F83D207B681B685B68FB607B681B68DB
:10273C009B68BB60FB6823F07003FB603B681B6805
:10274C00FA681343FB607B681B68FA685A607B6805
:10275C001B68164A93420ED07B681B68B3F1804FFE
:10276C0009D07B681B68124A934204D07B681B68B3
:10277C00104A93420CD1BB6823F08003BB603B68CA
:10278C005B68BA681343BB607B681B68BA689A6065
:10279C007B68012283F83D207B68002283F83C2073
:1027AC00002318461437BD4680BC7047002C0140EE
:1027BC00000400400008004080B582B000AF786093
:1027CC007B68002B01D101233FE07B6893F83D30FF
:1027DC00DBB2002B06D17B68002283F83C207868A2
:1027EC00FEF72AF97B68242283F83D207B681B685E
:1027FC00DA687B681B6822F40052DA60786800F0B3
:10280C0005F97B681B681A697B681B6822F4904287
:10281C001A617B681B685A697B681B6822F02A0264
:10282C005A617B681B68DA687B681B6842F400524B
:10283C00DA607B6800221A647B68202283F83D20D2
:10284C007B68202283F83E20002318460837BD46BB
:10285C0080BD80B58AB002AFF860B9603B601346AA
:10286C00FB8000237B61FB6893F83D30DBB2202BAF
:10287C007CD1BB68002B02D0FB88002B01D101233B
:10288C0075E0FB6893F83C30012B01D102236EE01C
:10289C00FB68012283F83C20FB6800221A64FB6869
:1028AC00212283F83D20FEF791F97861FB68FA88C4
:1028BC009A84FB68FA88DA84FB689B68B3F5805FBE
:1028CC0008D1FB681B69002B04D10023FB61BB689A
:1028DC00BB6103E0BB68FB610023BB61FB680022AA
:1028EC0083F83C202AE03B6800937B69002280211E
:1028FC00F86800F040F80346002B01D0032336E0C3
:10290C00FB69002B0BD1BB691B881A46FB681B6843
:10291C00C2F308025A60BB690233BB6107E0FB6972
:10292C001A78FB681B685A60FB690133FB61FB6812
:10293C00DB8C9BB2013B9AB2FB68DA84FB68DB8CC4
:10294C009BB2002BCFD13B6800937B6900224021C6
:10295C00F86800F010F80346002B01D0032306E0C2
:10296C00FB68202283F83D20002300E00223184658
:10297C002037BD4680BD80B584B000AFF860B9602B
:10298C003B601346FB712CE0BB69B3F1FF3F28D0D1
:10299C00BB69002B07D0FEF719F902463B68D31A26
:1029AC00BA699A421DD2FB681B68DA68FB681B681F
:1029BC0022F4D072DA60FB681B685A69FB681B68EA
:1029CC0022F001025A61FB68202283F83D20FB684B
:1029DC00202283F83E20FB68002283F83C2003234E
:1029EC000FE0FB681B681A68BB681340BA689A4210
:1029FC000CBF01230023DBB21A46FB799A42C3D0E9
:102A0C00002318461037BD4680BD000080B584B049
:102A1C0000AF78607B681B681B6923F440517B68AE
:102A2C00DA687B681B680A431A617B689A687B6862
:102A3C001B691A437B685B691343BB607B681B682B
:102A4C00DB6823F4B05323F00C037A681268B9687E
:102A5C000B43D3607B681B685B6923F440717B6814
:102A6C009A697B681B680A435A617B681B682C4A0D
:102A7C00934203D1FEF78CFFF86002E0FEF774FF7F
:102A8C00F860FA6813469B0013449A001A447B685A
:102A9C005B689B00B2FBF3F3224AA2FB03235B09A6
:102AAC001901FA6813469B0013449A001A447B6878
:102ABC005B689B00B2FBF3F21A4BA3FB02035B09AE
:102ACC00642000FB03F3D31A1B013233154AA2FB1B
:102ADC0003235B0903F0F0031944FA6813469B00C7
:102AEC0013449A001A447B685B689B00B2FBF3F2B8
:102AFC000C4BA3FB02035B09642000FB03F3D31A0A
:102B0C001B013233074AA2FB03235B0903F00F02BC
:102B1C007B681B680A449A6000BF1037BD4680BDB5
:102B2C00003801401F85EB51014B1868704700BFFE
:102B3C001402002070B500260C4D0D4C641BA41023
:102B4C00A64209D100F09CFC00260A4D0A4C641BDD
:102B5C00A410A64205D170BD55F8043B9847013628
:102B6C00EEE755F8043B98470136F2E7503500087C
:102B7C00503500085035000854350008034602440F
:102B8C00934200D1704703F8011BF9E70EB46FF0C4
:102B9C00004100B59CB01DAB0290069007910491CA
:102BAC000848094953F8042B0591006802A90193C0
:102BBC0000F068F80022029B1A701CB05DF804EB60
:102BCC0003B07047140200200802FFFF2DE9F04704
:102BDC008E6882469E420C4690461F4638D88A899B
:102BEC0012F4906F32D0256809690133A5EB010905
:102BFC0065694B4405EB450505EBD5756D109D429C
:102C0C0038BF1D46530531D5294600F06FFB0646EB
:102C1C0050B90C234FF0FF30CAF80030A38943F0B1
:102C2C004003A381BDE8F0874A46216900F0CEFA43
:102C3C00A38923F4906343F08003A38126614E445F
:102C4C0026603E466561A5EB0905A560BE4200D92C
:102C5C003E4632464146206800F0C6FAA368002082
:102C6C009B1BA360236833442360DBE72A4600F0F8
:102C7C00B1FB06460028E1D15046216900F0CEFA9E
:102C8C00C7E700002DE9F04F98468B8907461B06D5
:102C9C000D4614469DB00ED50B6963B9402100F06A
:102CAC0025FB2860286120B90C233B604FF0FF30D6
:102CBC00D1E040236B610023099320238DF8293048
:102CCC0030234FF00109CDF80C80DFF8A4818DF88A
:102CDC002A3023469A4613F8012B0AB1252AF9D13A
:102CEC00BAEB040B0BD05B46224629463846FFF75D
:102CFC006DFF013000F0AA80099A5A4409929AF8A3
:102D0C000030002B00F0A28000234FF0FF32CDE901
:102D1C0005230AF1010A049307938DF853301A9393
:102D2C005446052214F8011B514800F041FA049A4C
:102D3C00D8B9D00644BF20238DF85330110744BFB7
:102D4C002B238DF853309AF800302A2B15D054468B
:102D5C0000204FF00A0C079A214611F8013B303B3A
:102D6C00092B4ED9B0B1079214E0A0EB080309FA75
:102D7C0003F31343A2460493D2E7039B191D1B686C
:102D8C000391002BBBBF5B4242F0020207930793F7
:102D9C00B8BF049223782E2B0CD163782A2B35D113
:102DAC00039B02341A1D1B680392002BB8BF4FF013
:102DBC00FF330593DFF8BCA003225046217800F0C6
:102DCC00F7F940B14023A0EB0A0003FA00F0049B92
:102DDC0001340343049314F8011B062226488DF892
:102DEC00281000F0E5F9002838D0244B1BBB039BBE
:102DFC00073323F0070308330393099B33440993E8
:102E0C0067E70C4601200CFB0232A5E700234FF0CC
:102E1C000A0C194601340593204610F8012B303A60
:102E2C00092A03D9002BC5D00591C3E70446012319
:102E3C000CFB0121F0E703AB00932A463846104BFC
:102E4C0004A9AFF30080421C0646D6D1AB895B06C1
:102E5C003FF52CAF09981DB0BDE8F08F03AB009384
:102E6C002A463846064B04A900F07CF8EBE700BF75
:102E7C001C3500082235000826350008000000002B
:102E8C00D92B00082DE9F047164699468A680B693C
:102E9C0007469342B8BF1346336091F843200C4663
:102EAC00DDF820800AB1013333602368990642BFF4
:102EBC00336802333360256815F0060506D104F13A
:102ECC00190AE36832689B1AAB4228DC94F8432059
:102EDC00131E226818BF012392062DD4494638468A
:102EEC0004F14302C047013020D02368E56803F0A9
:102EFC000603042B18BF002532684FF00006A368A8
:102F0C0008BFAD1A226908BF25EAE5759342C4BF14
:102F1C009B1AED181A34B5421AD1002008E001238F
:102F2C00524649463846C047013003D14FF0FF3076
:102F3C00BDE8F0870135C4E73020E11881F8430083
:102F4C005A1C94F845102244023382F84310C5E70A
:102F5C000123224649463846C0470130E6D00136A7
:102F6C00D9E700002DE9FF470F7E9146782F804668
:102F7C000C469A460C9D01F1430207D8622F0AD8E1
:102F8C00002F00F0D980582F00F0A48004F14205E6
:102F9C0084F842703AE0A7F16303152BF6D801A12F
:102FAC0051F823F0093000081D300008992F000853
:102FBC00992F0008992F0008992F00081D30000840
:102FCC00992F0008992F0008992F0008992F0008B5
:102FDC002B3100084D3000080D310008992F0008E6
:102FEC00992F00084D310008992F00084D3000082A
:102FFC00992F0008992F0008153100082B681A1D0D
:10300C001B682A6004F1420584F842300123A4E0D5
:10301C0020682968060601F104030AD50E682B60A6
:10302C00002E03DA2D23764284F843300A235E48BF
:10303C0019E00E6810F0400F2B6018BF36B2EFE7A6
:10304C002B682068191D2960010601D51E6802E055
:10305C004606FBD51E886F2F0CBF08230A23524847
:10306C00002184F843106568002DA8BF2168A56075
:10307C00A4BF21F0040121600EB9002D4DD01546DE
:10308C00B6FBF3F103FB1167C75D05F8017D37460D
:10309C00BB420E46F4D9082B0BD12368DE0708D5AA
:1030AC00236961689942DEBF302305F8013C05F1C4
:1030BC00FF35521B22614B4621464046CDF800A0FD
:1030CC0003AAFFF7DFFE01304CD14FF0FF3004B004
:1030DC00BDE8F087344881F845702968236851F8B9
:1030EC00046B29601D0614D5DF0744BF43F0200391
:1030FC0023601EB9236823F0200323601023AFE75D
:10310C00236843F0200323607823284884F8453053
:10311C00E3E7590648BFB6B2E6E71546BBE72B68AE
:10312C002668181D6169286035061B6801D5196071
:10313C0002E07006FBD51980002315462361BAE71F
:10314C002B6800211A1D2A601D686268284600F051
:10315C002FF808B1401B606063682361002384F87A
:10316C004330A8E72A46494640462369D0470130F8
:10317C00ABD023689B0713D4E068039B9842B8BF7D
:10318C001846A4E70123324649464046D047013051
:10319C009BD00135E36803995B1AAB42F2DCEBE799
:1031AC00002504F11906F5E72D3500083E35000819
:1031BC00034610B5C9B202449342184601D100200F
:1031CC0003E0047801338C42F6D110BD0A449142DD
:1031DC0000F1FF3300D1704710B511F8014B91424B
:1031EC0003F8014FF9D110BD884210B501EB020470
:1031FC0002D98442234607D8431EA14208D011F8B5
:10320C00012B03F8012FF8E7014602448A4200D152
:10321C0010BD13F8014D02F8014DF7E738B505461E
:10322C00002940D051F8043C0C1F002BB8BFE41807
:10323C0000F010F91C4A136833B963601460284617
:10324C00BDE8384000F00CB9A34208D92068211819
:10325C008B4201BF19685B6809182160EDE71A46BB
:10326C005B680BB1A342FAD911685018A0420BD17C
:10327C0020680144501883421160E0D118685B68E3
:10328C00014411605360DAE702D90C232B60D6E7B6
:10329C00206821188B4201BF19685B6809182160EE
:1032AC0063605460CBE738BD6407002070B50E4EE8
:1032BC000C463168054611B900F0BCF83060214667
:1032CC00284600F0B7F8431C0AD0C41C24F00304B1
:1032DC00A04207D0211A284600F0ACF8013001D1E9
:1032EC004FF0FF34204670BD680700202DE9F041F7
:1032FC00CD1C25F0030508350C2D38BF0C25002DF1
:10330C00074601DBA94205D90C2300263B60304659
:10331C00BDE8F0812E4E00F09DF833681C4634BB9E
:10332C0029463846FFF7C2FF431C04464DD134688A
:10333C002646002E40D123683146384604EB03085C
:10334C0000F078F880453AD1216803356D1A25F0E4
:10335C00030508350C2D38BF0C2538462946FFF7D8
:10336C00A5FF01302BD023682B4423600EE022688C
:10337C00521B1ED40B2A16D96119A342256018BF03
:10338C005960636808BF316062514B60384604F184
:10339C000B0600F065F826F00706231DF21AB6D0CE
:1033AC009B1BA350B3E76268A3420CBF32605A6008
:1033BC00ECE723466468B2E734467668B9E70C2339
:1033CC0038463B6000F04CF8A1E72560DEE700BF13
:1033DC00640700202DE9F041804614460E4621B9C1
:1033EC001146BDE8F041FFF781BF2AB9FFF716FF80
:1033FC0025462846BDE8F08100F038F8844207469F
:10340C0002D8B4EB500F12D821464046FFF76EFF9E
:10341C0005460028EDD0BC422246314628BF3A462C
:10342C00FFF7D4FE31464046FFF7F8FEE1E735469C
:10343C00DFE7000038B50023054D044608462B6035
:10344C00FDF76CF9431C02D12B6803B1236038BD26
:10345C006C070020014800F011B800BF7007002075
:10346C00014800F00CB800BF7007002051F8043C74
:10347C00181F002BBCBF0B58C01870477047704703
:10348C00F8B500BFF8BC08BC9E467047F8B500BF45
:08349C00F8BC08BC9E46704715
:1034A40032303A34373A313300000000536570202B
:1034B4003135203230323200094275696C643A2069
:1034C40025732E2054696D653A2025732E0D0A004C
:1034D400092530336C75202530336C752020253058
:1034E400326C7509256420256C750D0A00000000F6
:1034F40002030405060708090A0B0C0D0E0F101031
:10350400000000000000000001020304060708098F
:103514000000000001020304232D302B2000686CFE
:103524004C006566674546470030313233343536E2
:10353400373839414243444546003031323334351B
:0C35440036373839616263646566000048
:04355000310100083D
:043554000D0100085D
:103558002D0000002D0000002D00000000000000DC
:103568000000000000000000000000000000000053
:103578000000000000000000000000000000000043
:103588000000000000000000000000000000000033
:103598000000000000000000000000000000000023
:1035A8000000000000000000000000000000000013
:1035B8000000000000000000000000000000000003
:1035C80000000000000000000000000000000000F3
:1035D80000000000000000000000000000000000E3
:1035E80000000000000000000000000000000000D3
:1035F80000000000000000000000000000000000C3
:1036080000000000000000000000000000000000B2
:1036180000000000000000000000000000000000A2
:103628000000000000000000000000000000000092
:103638000000000000000000000000000000000082
:103648000000000000000000000000000000000072
:103658000000000000000000000000000000000062
:103668000000000000000000000000000000000052
:103678000000000000000000000000000000000042
:103688000000000000000000000000000000000032
:103698000000000000000000000000000000000022
:1036A8000000000000000000000000000000000012
:1036B8000000000000000000000000000000000002
:1036C80000000000000000000000000000000000F2
:1036D80000000000000000000000000000000000E2
:1036E80000000000000000000000000000000000D2
:1036F80000000000000000000000000000000000C2
:1037080000000000000000000000000000000000B1
:1037180000000000000000000000000000000000A1
:103728000000000000000000000000000000000091
:103738000000000000000000000000000000000081
:103748000000000000000000000000000000000071
:1037580000000000000000000024F4001000000039
:103768000100000018020020000000000000000016
:103778000000000000000000000000000000000041
:103788000000000000000000000000000000000031
:103798000000000000000000000000000000000021
:1037A8000000000000000000000000000000000011
:1037B8000000000000000000000000000000000001
:0837C8000000000000000000F9
:0400000508000ADD08
:00000001FF
